{
  "contractName": "Certification",
  "abi": [
    {
      "anonymous": false,
      "inputs": [
        {
          "indexed": false,
          "name": "certId",
          "type": "string"
        },
        {
          "indexed": false,
          "name": "certEvent",
          "type": "string"
        },
        {
          "indexed": false,
          "name": "certData",
          "type": "string"
        }
      ],
      "name": "on_apply_cert",
      "type": "event",
      "signature": "0xb52e3b80c7df1ac60ab9bb9883fbd2240cef91f08991e2b5f75133e4e027fd67"
    },
    {
      "constant": false,
      "inputs": [
        {
          "name": "certId",
          "type": "string"
        },
        {
          "name": "certEvent",
          "type": "string"
        },
        {
          "name": "certData",
          "type": "string"
        }
      ],
      "name": "applyCert",
      "outputs": [],
      "payable": false,
      "stateMutability": "nonpayable",
      "type": "function",
      "signature": "0xda2f2595"
    },
    {
      "constant": true,
      "inputs": [
        {
          "name": "certId",
          "type": "string"
        }
      ],
      "name": "getCert",
      "outputs": [
        {
          "name": "certEvent",
          "type": "string"
        },
        {
          "name": "certData",
          "type": "string"
        }
      ],
      "payable": false,
      "stateMutability": "view",
      "type": "function",
      "signature": "0x7b20351b"
    }
  ],
  "bytecode": "0x608060405234801561001057600080fd5b506107e1806100206000396000f30060806040526004361061004c576000357c0100000000000000000000000000000000000000000000000000000000900463ffffffff1680637b20351b14610051578063da2f25951461019f575b600080fd5b34801561005d57600080fd5b506100b8600480360381019080803590602001908201803590602001908080601f0160208091040260200160405190810160405280939291908181526020018383808284378201915050505050509192919290505050610294565b604051808060200180602001838103835285818151815260200191508051906020019080838360005b838110156100fc5780820151818401526020810190506100e1565b50505050905090810190601f1680156101295780820380516001836020036101000a031916815260200191505b50838103825284818151815260200191508051906020019080838360005b83811015610162578082015181840152602081019050610147565b50505050905090810190601f16801561018f5780820380516001836020036101000a031916815260200191505b5094505050505060405180910390f35b3480156101ab57600080fd5b50610292600480360381019080803590602001908201803590602001908080601f0160208091040260200160405190810160405280939291908181526020018383808284378201915050505050509192919290803590602001908201803590602001908080601f0160208091040260200160405190810160405280939291908181526020018383808284378201915050505050509192919290803590602001908201803590602001908080601f01602080910402602001604051908101604052809392919081815260200183838082843782019150505050505091929192905050506104b4565b005b6060806000836040518082805190602001908083835b6020831015156102cf57805182526020820191506020810190506020830392506102aa565b6001836020036101000a03801982511681845116808217855250505050505090500191505090815260200160405180910390206001016000846040518082805190602001908083835b60208310151561033d5780518252602082019150602081019050602083039250610318565b6001836020036101000a0380198251168184511680821785525050505050509050019150509081526020016040518091039020600201818054600181600116156101000203166002900480601f0160208091040260200160405190810160405280929190818152602001828054600181600116156101000203166002900480156104085780601f106103dd57610100808354040283529160200191610408565b820191906000526020600020905b8154815290600101906020018083116103eb57829003601f168201915b50505050509150808054600181600116156101000203166002900480601f0160208091040260200160405190810160405280929190818152602001828054600181600116156101000203166002900480156104a45780601f10610479576101008083540402835291602001916104a4565b820191906000526020600020905b81548152906001019060200180831161048757829003601f168201915b5050505050905091509150915091565b606060405190810160405280848152602001838152602001828152506000846040518082805190602001908083835b60208310151561050857805182526020820191506020810190506020830392506104e3565b6001836020036101000a03801982511681845116808217855250505050505090500191505090815260200160405180910390206000820151816000019080519060200190610557929190610710565b506020820151816001019080519060200190610574929190610710565b506040820151816002019080519060200190610591929190610710565b509050507fb52e3b80c7df1ac60ab9bb9883fbd2240cef91f08991e2b5f75133e4e027fd6783838360405180806020018060200180602001848103845287818151815260200191508051906020019080838360005b838110156106015780820151818401526020810190506105e6565b50505050905090810190601f16801561062e5780820380516001836020036101000a031916815260200191505b50848103835286818151815260200191508051906020019080838360005b8381101561066757808201518184015260208101905061064c565b50505050905090810190601f1680156106945780820380516001836020036101000a031916815260200191505b50848103825285818151815260200191508051906020019080838360005b838110156106cd5780820151818401526020810190506106b2565b50505050905090810190601f1680156106fa5780820380516001836020036101000a031916815260200191505b50965050505050505060405180910390a1505050565b828054600181600116156101000203166002900490600052602060002090601f016020900481019282601f1061075157805160ff191683800117855561077f565b8280016001018555821561077f579182015b8281111561077e578251825591602001919060010190610763565b5b50905061078c9190610790565b5090565b6107b291905b808211156107ae576000816000905550600101610796565b5090565b905600a165627a7a723058202440b120cb3d48680197f2391cd4428f253ef45a828d387b88466ca49d76971f0029",
  "source": "pragma solidity ^0.4.25;\n\ncontract Certification {\n\n event on_apply_cert(string certId, string certEvent, string certData);\n  \n struct CertificationInfo{\n     string certId;\n     string certEvent;\n     string certData;\n  }\n  \n mapping(string => CertificationInfo) internal info;\n  \n function applyCert(string certId, string certEvent, string certData) public {\n       info[certId] = CertificationInfo(certId, certEvent, certData);\n\n       on_apply_cert(certId, certEvent, certData);\n  }\n \n function getCert(string certId) public view returns(string certEvent , string certData ){\n       return (info[certId].certEvent, info[certId].certData);\n }\n\n}\n",
  "sourcePath": "/home/jaehoon/work/demo/sample/contracts/Certification.sol",
  "compiler": {
    "name": "solc",
    "version": "0.4.25+commit.59dbf8f1.Emscripten.clang"
  },
  "schemaVersion": "3.0.5",
  "updatedAt": "2019-03-22T12:57:53.437Z",
  "devdoc": {
    "methods": {}
  },
  "userdoc": {
    "methods": {}
  }
}